S023000053697374656D614465456E766173654175746F6D6174697A61646F2E737265632E
S11300000C9434000C9451000C9451000C94510045
S11300100C9451000C9451000C9451000C94C602A1
S11300200C9451000C9451000C9451000C94A002B7
S11300300C9451000C9451000C9451000C945100F8
S11300400C9483020C9451000C94FB020C94510008
S11300500C9451000C9451000C9451000C945100D8
S11300600C9451000C94510011241FBECFEFD8E022
S1130070DEBFCDBF11E0A0E0B1E0E6E4F6E002C0EF
S113008005900D92AC30B107D9F721E0ACE0B1E0B6
S113009001C01D92AF30B207E1F70E9437020C9401
S11300A021030C94000010927C0080E880937A0075
S11300B008958AEE84B98CEF8AB90895823079F074
S11300C08330C1F0813001F525B181E090E002C0B8
S11300D0880F991F6A95E2F7822B85B9089528B194
S11300E081E090E002C0880F991F6A95E2F7822BA5
S11300F088B908952BB181E090E002C0880F991F60
S11301006A95E2F7822B8BB90895823081F08330AF
S1130110D1F0813019F525B181E090E002C0880F5B
S1130120991F6A95E2F78095822385B9089528B1CD
S113013081E090E002C0880F991F6A95E2F78095EC
S1130140822388B908952BB181E090E002C0880F22
S1130150991F6A95E2F7809582238BB908958230BE
S113016079F08330C1F0813001F525B181E090E070
S113017002C0880F991F6A95E2F7822785B908950E
S113018028B181E090E002C0880F991F6A95E2F7D8
S1130190822788B908952BB181E090E002C0880FCE
S11301A0991F6A95E2F782278BB90895CF93DF935D
S11301B0C62FD62FD295DF70882329F062E083E022
S11301C00E945E0004C062E083E00E94850063E058
S11301D083E00E9485008D2F887029F067E083E01A
S11301E00E945E0004C067E083E00E948500D2FFA5
S11301F005C066E083E00E945E0004C066E083E020
S11302000E948500D1FF05C065E083E00E945E0086
S113021004C065E083E00E948500D0FF05C064E06F
S113022083E00E945E0004C064E083E00E948500D5
S113023063E083E00E945E008AE090E00E9477021F
S113024063E083E00E948500C3FF05C067E083E0AC
S11302500E945E0004C067E083E00E948500C2FF44
S113026005C066E083E00E945E0004C066E083E0AF
S11302700E948500C1FF05C065E083E00E945E0026
S113028004C065E083E00E948500C0FF05C064E00F
S113029083E00E945E0004C064E083E00E94850065
S11302A063E083E00E945E008AE090E00E947702AF
S11302B063E083E00E94850084E190E00E9477027D
S11302C0DF91CF91089562E083E00E94850086E982
S11302D090E00E94770263E080E00E94D60089E209
S11302E090E00E94770263E080E00E94D6008AE0FA
S11302F090E00E94770263E080E00E94D60062E012
S113030080E00E94D60068E280E00E94D6006CE0A3
S113031080E00E94D60061E080E00E94D60066E0A2
S113032080E00E94D6000895EF92FF921F93CF932E
S1130330DF937C01162F8AC0F701C081DC2FD29590
S1130340DF7062E083E00E945E0063E083E00E946D
S1130350850081E090E00E9477028D2F887029F05B
S113036067E083E00E945E0004C067E083E00E94CF
S11303708500D2FF05C066E083E00E945E0004C0F1
S113038066E083E00E948500D1FF05C065E083E05C
S11303900E945E0004C065E083E00E948500D0FFF7
S11303A005C064E083E00E945E0004C064E083E072
S11303B00E94850063E083E00E945E008AE090E092
S11303C00E94770263E083E00E948500C3FF05C0BA
S11303D067E083E00E945E0004C067E083E00E945F
S11303E08500C2FF05C066E083E00E945E0004C091
S11303F066E083E00E948500C1FF05C065E083E0FC
S11304000E945E0004C065E083E00E948500C0FF96
S113041005C064E083E00E945E0004C064E083E001
S11304200E94850063E083E00E945E008AE090E021
S11304300E94770263E083E00E94850084E190E0FB
S11304400E947702FFEFEF1AFF0A1150812F90E00C
S11304500197181619060CF46FCF62E083E00E942E
S11304608500DF91CF911F91FF90EF9008950E9436
S113047059000E9453000E94EC0278940E944C029E
S11304800E9463016CE080E091E00E94940160ECC2
S113049080E00E94D600FFCF14BC82E085BD91E0CD
S11304A095BBEEE6F0E090819160908316BC1092CB
S11304B080009AE09093810086BBEFE6F0E09081A3
S11304C09260908393E19093890098E890938800D8
S11304D08093B00097E09093B10087BBE0E7F0E031
S11304E080818260808387E28093B30008951092B4
S11304F00D0110920C0120910C0130910D0128176F
S11305003907C8F308951F920F920FB60F92112462
S11305108F939F938BE986BD80910C0190910D017F
S113052080910C0190910D01019690930D0180939F
S11305300C019F918F910F900FBE0F901F901895F3
S11305401F920F920FB60F9211242F933F934F9344
S11305505F936F937F938F939F93AF93BF93EF9327
S1130560FF9366E081E00E94AF00FF91EF91BF919D
S1130570AF919F918F917F916F915F914F913F9137
S11305802F910F900FBE0F901F9018951F920F92EE
S11305900FB60F9211242F933F934F935F936F9352
S11305A07F938F939F93AF93BF93EF93FF9367E0F2
S11305B081E00E94AF00FF91EF91BF91AF919F91B5
S11305C08F917F916F915F914F913F912F910F90F8
S11305D00FBE0F901F9018951092C50083E380936F
S11305E0C40088E98093C10086E08093C200089526
S11305F08091C60008951F920F920FB60F92112496
S11306002F933F934F935F936F937F938F939F9316
S1130610AF93BF93EF93FF930E94F80280930E0170
S1130620FF91EF91BF91AF919F918F917F916F91C6
S11306305F914F913F912F910F900FBE0F901F909C
S10906401895F894FFCFA9
S10F06464D6F646F3A20546174696C00BD
S9030000FC
