:100000000C9434000C9446000C9446000C9446006A
:100010000C9446000C9446000C9446000C94460048
:100020000C9446000C9446000C9446000C94460038
:100030000C9446000C9446000C9446000C94460028
:100040000C9449000C9446000C94A3000C944600B8
:100050000C9446000C9446000C9446000C94460008
:100060000C9446000C94460011241FBECFEFD8E03C
:10007000DEBFCDBF21E0A0E0B1E001C01D92A730FE
:10008000B207E1F70E9448000C94C9000C940000EC
:10009000FFCF1F920F920FB60F9211242F938F93C1
:1000A0009F9382E886BD80910401813059F4329992
:1000B00009C010920501109200011092040188B14C
:1000C0008E7F88B980910601813059F4339909C037
:1000D00010920501109200011092060188B18D7FE7
:1000E00088B98091010190910201883E23E0920736
:1000F00030F40196909302018093010119C010928F
:1001000002011092010180910501882389F08091FC
:1001100000018F5F80930001853050F0109205013F
:100120001092000188B18E7F88B988B18D7F88B91F
:100130009F918F912F910F900FBE0F901F90189548
:100140008091C60008951F920F920FB60F9211244E
:100150002F933F934F935F936F937F938F939F93CF
:10016000AF93BF93EF93FF930E94A000809303018E
:10017000FF91EF91BF91AF919F918F917F916F917F
:100180005F914F913F912F910F900FBE0F901F9055
:060190001895F894FFCF62
:00000001FF
