S023000053697374656D614465456E766173654175746F6D6174697A61646F2E737265632E
S11300000C94EA000C9407010C9407010C9407016A
S11300100C94A8010C9407010C9407010C94650638
S11300200C9407010C9407010C9407010C943906F5
S11300300C9407010C9407010C9407010C9407011C
S11300400C94A7050C9407010C94AE060C940701BC
S11300500C9407010C9407010C9407010C940701FC
S11300600C9407010C94070158033403340334033C
S113007034033403340334033403340337033403C1
S113008034033403340334033403340334033403B4
S11300903A0334033403340334033403340334039E
S11300A0340334033D03340334033403340334038B
S11300B03403340334033403400334033403340378
S11300C03403340334033403340334034303340365
S11300D03403340334034603340334033403340352
S11300E0490334033403340334033403340334033F
S11300F0340334034C0334033403340334034F0311
S11301003403340334033403520334033403340315
S113011034033403340334033403340355031A041B
S11301206B056B056B056B056B056B056B056B054B
S11301306B0539056B056B056B056B056B056B056D
S11301406B056B056B051D046B056B056B056B057A
S11301506B056B056B056B056B05D1036B056B05B7
S11301606B056B056B056B056B056B056B05450432
S11301706B056B056B056B056B056B056B056B05FB
S11301806B05A4046B056B056B056B05DF046B0540
S11301906B056B056B0530056B056B056B056B0516
S11301A06B056B056B056B056B0518056B056B051E
S11301B06B056B05F2046B056B056B056B0542055E
S11301C06B056B056B056B056B056B056B056B05AB
S11301D06B055A0511241FBECFEFD8E0DEBFCDBF9B
S11301E012E0A0E0B1E0E6EBF0E102C005900D9270
S11301F0AA32B107D9F722E0AAE2B2E001C01D9207
S1130200A134B207E1F70E947E030C9459080C94C0
S1130210000010927C0080E880937A000895ECE757
S1130220F0E09081907F90839081892B8083EAE72E
S1130230F0E080818064808380917A0086FDFCCF29
S1130240809178009091790008958AEE84B98CEFBA
S11302508AB982E08093680080E180936C000895FD
S1130260823079F08330C1F0813001F525B181E02D
S113027090E002C0880F991F6A95E2F7822B85B936
S1130280089528B181E090E002C0880F991F6A9513
S1130290E2F7822B88B908952BB181E090E002C087
S11302A0880F991F6A95E2F7822B8BB908958230E3
S11302B081F08330D1F0813019F525B181E090E0EF
S11302C002C0880F991F6A95E2F78095822385B949
S11302D0089528B181E090E002C0880F991F6A95C3
S11302E0E2F78095822388B908952BB181E090E0EC
S11302F002C0880F991F6A95E2F7809582238BB913
S11303000895823079F08330C1F0813001F525B150
S113031081E090E002C0880F991F6A95E2F7822776
S113032085B9089528B181E090E002C0880F991F33
S11303306A95E2F7822788B908952BB181E090E0AD
S113034002C0880F991F6A95E2F782278BB9089536
S11303501F920F920FB60F9211248F939F9381E0F7
S113036090E090932B0280932A029F918F910F909B
S11303700FBE0F901F901895CF93DF93C62FD62FE3
S1130380D295DF70882329F062E083E00E94300177
S113039004C062E083E00E94570163E083E00E94AE
S11303A057018D2F887029F067E083E00E943001A7
S11303B004C067E083E00E945701D2FF05C066E0F5
S11303C083E00E94300104C066E083E00E9457018C
S11303D0D1FF05C065E083E00E94300104C065E000
S11303E083E00E945701D0FF05C064E083E00E94CF
S11303F0300104C064E083E00E94570163E083E0BD
S11304000E9430018AE090E00E949B0563E083E053
S11304100E945701C3FF05C067E083E00E943001DA
S113042004C067E083E00E945701C2FF05C066E094
S113043083E00E94300104C066E083E00E9457011B
S1130440C1FF05C065E083E00E94300104C065E09F
S113045083E00E945701C0FF05C064E083E00E946E
S1130460300104C064E083E00E94570163E083E04C
S11304700E9430018AE090E00E949B0563E083E0E3
S11304800E94570184E190E00E949B05DF91CF9187
S1130490089562E083E00E94570186E990E00E949B
S11304A09B0563E080E00E94BC0189E290E00E9429
S11304B09B0563E080E00E94BC018AE090E00E941A
S11304C09B0563E080E00E94BC0162E080E00E9442
S11304D0BC0168E280E00E94BC016CE080E00E9404
S11304E0BC0161E080E00E94BC0166E080E00E9403
S11304F0BC010895EF92FF921F93CF93DF937C0189
S1130500162F8AC0F701C081DC2FD295DF7062E01C
S113051083E00E94300163E083E00E94570181E0A0
S113052090E00E949B058D2F887029F067E083E09E
S11305300E94300104C067E083E00E945701D2FFAB
S113054005C066E083E00E94300104C066E083E0F9
S11305500E945701D1FF05C065E083E00E9430018D
S113056004C065E083E00E945701D0FF05C064E049
S113057083E00E94300104C064E083E00E945701DC
S113058063E083E00E9430018AE090E00E949B05D2
S113059063E083E00E945701C3FF05C067E083E086
S11305A00E94300104C067E083E00E945701C2FF4B
S11305B005C066E083E00E94300104C066E083E089
S11305C00E945701C1FF05C065E083E00E9430012D
S11305D004C065E083E00E945701C0FF05C064E0E9
S11305E083E00E94300104C064E083E00E9457016C
S11305F063E083E00E9430018AE090E00E949B0562
S113060063E083E00E94570184E190E00E949B052F
S1130610FFEFEF1AFF0A1150812F90E0019718168F
S113062019060CF46FCF62E083E00E945701DF915A
S1130630CF911F91FF90EF900895EF92FF920F9347
S11306401F93CF93DF9300D0CDB7DEB78C017B012E
S113065062E080E00E94BC010B35110528F4F8012A
S1130660EC5CFF4F0C94F80780E090E023C081E13C
S113067091E020C083E291E01DC084E391E01AC0C0
S113068085E491E017C086E591E014C087E691E027
S113069011C088E791E00EC089E891E00BC08AE9B7
S11306A091E008C08BEA91E005C08CEB91E002C0B8
S11306B080E091E0FC0101900020E9F73197E81B0C
S11306C0F90B61E06E0F0E947A0260EC80E00E94F8
S11306D0BC014AE0BE016F5F7F4FC7010E941C0846
S11306E063E0CE0101960E947A020F900F90DF9191
S11306F0CF911F910F91FF90EF900895CF93DF93C7
S113070000D0CDB7DEB70E9425010E9409010E94E6
S1130710910678940E9470050E94490219821A82F7
S11307206EE08DEC91E00E947A0260EC80E00E9421
S1130730BC0162E0CE0101960E947A02E12CF12C08
S1130740C12CD12C0EE110E080912A0290912B0251
S11307500197F1F461E081E00E94570163E081E0D8
S11307600E94570165E081E00E94570166E081E044
S11307700E9430011092350210923402109233021A
S11307801092320210922B0210922A020AE010E018
S11307900B35110508F09FC1F801E157FF4F0C9488
S11307A0F807E114F10409F08EC164E28BED91E0E5
S11307B00E949D0680914002882331F161E080E42B
S11307C092E00E949D06809140028D3011F08A30A3
S11307D029F410924002C12CD12C1AC090ED980F2C
S11307E09A3030F069E280E092E00E949D060AC0EF
S11307F0E1E0F0E0EC0FFD1FEC0DFD1D80838FEFB9
S1130800C81AD80A1092400283E0C816D10494F2A0
S113081062E0CE0101960E949D0662E087E292E0CA
S11308200E949D06CE0101960E94FE077C0100E015
S113083010E051C118994AC14EC185E090E00E9470
S11308400F01BC01990F880B990B0E94D60628E66C
S113085038EE4FE95BE30E941607339B3AC120E070
S113086030E040E650E40E94110718160CF033C142
S113087081E090E0909335028093340210922D022F
S113088010922C0208E210E026C1339913C0109292
S1130890350210923402109233021092320261E057
S11308A081E00E94570163E081E00E94570100E566
S11308B010E011C132990BC010923502109234022B
S11308C063E081E00E94570102E310E004C1E114F7
S11308D0F104E1F481E090E09093310280933002DE
S11308E010923502109234021092330210923202A6
S11308F061E00E94570163E081E00E94570165E0D6
S113090081E00E94570106E410E0E5C080912C02CA
S113091090912D0240970CF4DEC010923502109293
S1130920340261E081E00E94570163E081E00E94AB
S1130930570165E081E00E94570166E081E00E9472
S113094030010CE310E0C7C030991DC01C9B1BC0D4
S113095061E081E00E94570163E081E00E94570159
S113096065E081E00E94570166E081E00E94300169
S11309701092350210923402109233021092320215
S11309800AE510E0A8C0309911C01C990FC010925C
S113099033021092320261E081E00E94570165E067
S11309A081E00E94300107E310E095C01C9B93C0D6
S11309B081E090E090933302809332028CC01C9BC0
S11309C08AC065E081E00E94570181E090E0909345
S11309D035028093340210922D0210922C020BE403
S11309E010E079C0329B06C081E0E81AF10808E201
S11309F010E071C080912C0290912D0240970CF46C
S1130A006AC0109235021092340261E081E00E94C3
S1130A10570163E081E00E94570165E081E00E9494
S1130A20570166E081E00E9430010CE310E053C0FE
S1130A308091300290913102892B29F067E081E0A6
S1130A400E94300104C067E081E00E94570131999F
S1130A5042C067E081E00E9457010EE110E03BC014
S1130A60319939C066E081E00E9457010EE110E03F
S1130A7032C0349B30C066E081E00E9457010EE131
S1130A8010E029C080912E0290912F02892B29F029
S1130A9066E081E00E94300104C066E081E00E94CB
S1130AA05701339B18C066E081E00E9457010EE1B4
S1130AB010E011C031990FC066E081E00E94570137
S1130AC00EE110E008C000E010E005C004E110E011
S1130AD002C000E510E0B701C8010E941D0334CE36
S1130AE014BC82E085BD91E095BBEEE6F0E0908118
S1130AF09160908316BC109280009AE090938100DC
S1130B0086BBEFE6F0E090819260908393E190934E
S1130B10890098E8909388008093B00097E09093C0
S1130B20B10087BBE0E7F0E080818260808387E2E8
S1130B308093B300089510923F0210923E022091D8
S1130B403E0230913F0228173907C8F308951F92D7
S1130B500F920FB60F9211242F933F938F939F936D
S1130B608BE986BD80913E0290913F0280913E02C6
S1130B7090913F02019690933F0280933E028091B0
S1130B803C0290913D02019690933D0280933C0279
S1130B9080913C0290913D020A976CF010923D02C4
S1130BA010923C0280913A0290913B0201969093FC
S1130BB03B0280933A0280913A0290913B020A9759
S1130BC06CF010923B0210923A028091380290919C
S1130BD03902019690933902809338028091380249
S1130BE0909139020A976CF01092390210923802EF
S1130BF08091360290913702019690933702809348
S1130C00360280913602909137020A974CF1109285
S1130C1037021092360280912C0290912D02019697
S1130C2090932D0280932C0281E090E02091300279
S1130C3030913102232B11F080E090E09093310247
S1130C408093300281E090E020912E0230912F02B7
S1130C50232B11F080E090E090932F0280932E02DA
S1130C609F918F913F912F910F900FBE0F901F90E6
S1130C7018951F920F920FB60F9211242F933F9342
S1130C804F935F936F937F938F939F93AF93BF9390
S1130C90EF93FF938091340290913502892B21F0D8
S1130CA063E081E00E948101FF91EF91BF91AF91D8
S1130CB09F918F917F916F915F914F913F912F9170
S1130CC00F900FBE0F901F9018951F920F920FB6A2
S1130CD00F9211242F933F934F935F936F937F93BE
S1130CE08F939F93AF93BF93EF93FF9380913202BF
S1130CF090913302892B21F061E081E00E9481010F
S1130D00FF91EF91BF91AF919F918F917F916F91DF
S1130D105F914F913F912F910F900FBE0F901F90B5
S1130D2018951092C50083E38093C40088E98093EA
S1130D30C10086E08093C2000895FC0109C090912F
S1130D40C00095FFFCCF80818093C600615031962E
S1130D506111F5CF08958091C60008951F920F92F6
S1130D600FB60F9211242F933F934F935F936F937A
S1130D707F938F939F93AF93BF93EF93FF930E94BF
S1130D80AB0680934002FF91EF91BF91AF919F9189
S1130D908F917F916F915F914F913F912F910F9020
S1130DA00FBE0F901F901895E89409C097FB3EF46E
S1130DB090958095709561957F4F8F4F9F4F9923A4
S1130DC0A9F0F92F96E9BB279395F6958795779522
S1130DD06795B795F111F8CFFAF4BB0F11F460FFE2
S1130DE01BC06F5F7F4F8F4F9F4F16C0882311F03A
S1130DF096E911C0772321F09EE8872F762F05C04E
S1130E00662371F096E8862F70E060E02AF09A95E8
S1130E10660F771F881FDAF7880F9695879597F9DD
S1130E2008950E94830708F48FEF08950E9429070C
S1130E300C94BE070E94B00738F00E94B70720F058
S1130E40952311F00C94A7070C94AD0711240C946E
S1130E50F2070E94CF0770F3959FC1F3950F50E0FE
S1130E60551F629FF001729FBB27F00DB11D639F58
S1130E70AA27F00DB11DAA1F649F6627B00DA11DFE
S1130E80661F829F2227B00DA11D621F739FB00DA4
S1130E90A11D621F839FA00D611D221F749F332714
S1130EA0A00D611D231F849F600D211D822F762FAD
S1130EB06A2F11249F5750409AF0F1F088234AF08A
S1130EC0EE0FFF1FBB1F661F771F881F91505040F6
S1130ED0A9F79E3F510580F00C94A7070C94F207E4
S1130EE05F3FE4F3983ED4F3869577956795B7957D
S1130EF0F795E7959F5FC1F7FE2B880F911D969597
S1130F00879597F90895990F0008550FAA0BE0E803
S1130F10FEEF16161706E807F907C0F012161306B7
S1130F20E407F50798F0621B730B840B950B39F4F7
S1130F300A2661F0232B242B252B21F408950A265D
S1130F4009F4A140A6958FEF811D811D089597F99D
S1130F509F6780E870E060E008959FEF80EC08955B
S1130F6000240A9416161706180609060895002484
S1130F700A9412161306140605060895092E0394FE
S1130F80000C11F4882352F0BB0F40F4BF2B11F472
S1130F9060FF04C06F5F7F4F8F4F9F4F089557FDD1
S1130FA09058440F551F59F05F3F71F04795880FD3
S1130FB097FB991F61F09F3F79F08795089512166A
S1130FC013061406551FF2CF4695F1DF08C0161616
S1130FD017061806991FF1CF8695710561050894C7
S1130FE00895E894BB2766277727CB0197F90895DE
S1130FF0EE0FFF1F0590F491E02D0994FC01882762
S11310009927E89421912032E9F3293010F02E3009
S1131010C8F32B3241F02D3239F4689404C00E9495
S11310202708820F911D219120532A30C0F31EF40A
S1131030909581959F4F0895BB274A3031F49923A9
S113104022F4BDE2909581959F4F0C9430087AE08C
S1131050979F902D879F802D910D11240895BB2774
S1131060FB015527AA27880F991FAA1FA41710F060
S1131070A41B83955051B9F7A05DAA3308F0A95D6C
S1131080A193009779F7B111B1931192CB010C940C
S11310904908DC01FC01672F71917723E1F732974E
S11310A004C07C916D9370836291AE17BF07C8F33F
S10910B00895F894FFCF3F
S11310B645737461646F3A496E6963696F202020D1
S11310C60045737461646F3A456D6572672020202C
S11310D620200045737461646F3A4C696761646FDC
S11310E62020200045737461646F3A436F6E66690D
S11310F6672020200045737461646F3A45737465F4
S113110669726120200045737461646F3A446F7399
S113111661646F7220200045737461646F3A436999
S11311266C696E64726F200045737461646F3A541F
S1131136696D656F757420200045737461646F3A38
S1131146556C74696D6F2020200045737461646F5B
S11311563A4D6F7665205265632000457374616469
S11311666F3A52657320426169786F004573746102
S1131176646F3A53656E73204572726F00457374DB
S113118661646F3A436F6E6669670045736372659F
S113119676612061207175616E746964616465208D
S11311A6646520766173696C68616D65733A2000C5
S11311B60D4E756D65726F2065727261646F212EB6
S11311C6204573636F6C6861206170656E6173207E
S10D11D66E756D65726F730D0000F5
S9030000FC
